:020000040000fa
:080000000002040000000000f2
:020000040000fa
:040008008e03000063
:020000040000fa
:04000c008e0300005f
:020000040000fa
:040010008e0300005b
:020000040000fa
:040014008e03000057
:020000040000fa
:040018008e03000053
:020000040000fa
:04001c008e0300004f
:020000040000fa
:040020008e0300004b
:020000040000fa
:040024008e03000047
:020000040000fa
:040028008e03000043
:020000040000fa
:04002c008e0300003f
:020000040000fa
:040030008e0300003b
:020000040000fa
:0400340002030000c3
:020000040000fa
:040038008e03000033
:020000040000fa
:04003c008e0300002f
:020000040000fa
:040040008e0300002b
:020000040000fa
:040044008e03000027
:020000040000fa
:04004800fa020000b8
:020000040000fa
:04004c008e0300001f
:020000040000fa
:040050008e0300001b
:020000040000fa
:040054008e03000017
:020000040000fa
:040058008e03000013
:020000040000fa
:04005c006a03000033
:020000040000fa
:040060008e0300000b
:020000040000fa
:040064008e03000007
:020000040000fa
:040068008e03000003
:020000040000fa
:04006c008e030000ff
:020000040000fa
:040070008e030000fb
:020000040000fa
:040074008e030000f7
:020000040000fa
:040078008e030000f3
:020000040000fa
:04007c008e030000ef
:020000040000fa
:040080008e030000eb
:020000040000fa
:040084008e030000e7
:020000040000fa
:040088008e030000e3
:020000040000fa
:04008c008e030000df
:020000040000fa
:040090008e030000db
:020000040000fa
:040094004003000025
:020000040000fa
:040098008e030000d3
:020000040000fa
:04009c008e030000cf
:020000040000fa
:0400a0008e030000cb
:020000040000fa
:0400a4008e030000c7
:020000040000fa
:0400a8008e030000c3
:020000040000fa
:0400ac008e030000bf
:020000040000fa
:0400b0008e030000bb
:020000040000fa
:0400b4008e030000b7
:020000040000fa
:0400b8008e030000b3
:020000040000fa
:0400bc008e030000af
:020000040000fa
:0400c0008e030000ab
:020000040000fa
:0400c4008e030000a7
:020000040000fa
:0400c8008e030000a3
:020000040000fa
:0400cc008e0300009f
:020000040000fa
:0400d0008e0300009b
:020000040000fa
:0400d4008e03000097
:020000040000fa
:0400d8008e03000093
:020000040000fa
:0400dc008e0300008f
:020000040000fa
:0400e0008e0300008b
:020000040000fa
:0400e4008e03000087
:020000040000fa
:0400e8008e03000083
:020000040000fa
:0400ec008e0300007f
:020000040000fa
:0400f0008e0300007b
:020000040000fa
:0400f4008e03000077
:020000040000fa
:0400f8008e03000073
:020000040000fa
:0400fc008e0300006f
:020000040000fa
:040100008e0300006a
:020000040000fa
:040104008e03000066
:020000040000fa
:040108008e03000062
:020000040000fa
:04010c008e0300005e
:020000040000fa
:040110008e0300005a
:020000040000fa
:040114008e03000056
:020000040000fa
:040118008e03000052
:020000040000fa
:04011c008e0300004e
:020000040000fa
:040120008e0300004a
:020000040000fa
:040124008e03000046
:020000040000fa
:040128008e03000042
:020000040000fa
:04012c008e0300003e
:020000040000fa
:040130008e0300003a
:020000040000fa
:040134008e03000036
:020000040000fa
:040138008e03000032
:020000040000fa
:04013c008e0300002e
:020000040000fa
:040140008e0300002a
:020000040000fa
:040144008e03000026
:020000040000fa
:040148008e03000022
:020000040000fa
:04014c008e0300001e
:020000040000fa
:040150008e0300001a
:020000040000fa
:040154008e03000016
:020000040000fa
:040158008e03000012
:020000040000fa
:04015c008e0300000e
:020000040000fa
:040160008e0300000a
:020000040000fa
:040164008e03000006
:020000040000fa
:040168008e03000002
:020000040000fa
:04016c008e030000fe
:020000040000fa
:040170008e030000fa
:020000040000fa
:040174008e030000f6
:020000040000fa
:040178008e030000f2
:020000040000fa
:04017c008e030000ee
:020000040000fa
:040180008e030000ea
:020000040000fa
:040184008e030000e6
:020000040000fa
:040188008e030000e2
:020000040000fa
:04018c008e030000de
:020000040000fa
:040190008e030000da
:020000040000fa
:040194008e030000d6
:020000040000fa
:040198008e030000d2
:020000040000fa
:04019c008e030000ce
:020000040000fa
:0401a0008e030000ca
:020000040000fa
:0401a4008e030000c6
:020000040000fa
:0401a8008e030000c2
:020000040000fa
:0401ac008e030000be
:020000040000fa
:0401b0008e030000ba
:020000040000fa
:0401b4008e030000b6
:020000040000fa
:0401b8008e030000b2
:020000040000fa
:0401bc008e030000ae
:020000040000fa
:0401c0008e030000aa
:020000040000fa
:0401c4008e030000a6
:020000040000fa
:0401c8008e030000a2
:020000040000fa
:0401cc008e0300009e
:020000040000fa
:0401d0008e0300009a
:020000040000fa
:0401d4008e03000096
:020000040000fa
:0401d8008e03000092
:020000040000fa
:0401dc008e0300008e
:020000040000fa
:0401e0008e0300008a
:020000040000fa
:0401e4008e03000086
:020000040000fa
:0401e8008e03000082
:020000040000fa
:0401ec008e0300007e
:020000040000fa
:0401f0008e0300007a
:020000040000fa
:0401f4008e03000076
:020000040000fa
:0401f8008e03000072
:020000040000fa
:0401fc008e0300006e
:020000040000fa
:040200008e03000069
:020000040000fa
:040204008e03000065
:020000040000fa
:040208008e03000061
:020000040000fa
:04020c008e0300005d
:020000040000fa
:040210008e03000059
:020000040000fa
:040214008e03000055
:020000040000fa
:040218008e03000051
:020000040000fa
:04021c008e0300004d
:020000040000fa
:040220008e03000049
:020000040000fa
:040224008e03000045
:020000040000fa
:040228008e03000041
:020000040000fa
:04022c008e0300003d
:020000040000fa
:040230008e03000039
:020000040000fa
:040234008e03000035
:020000040000fa
:040238008e03000031
:020000040000fa
:04023c008e0300002d
:020000040000fa
:040240008e03000029
:020000040000fa
:040244008e03000025
:020000040000fa
:040248008e03000021
:020000040000fa
:04024c008e0300001d
:020000040000fa
:040250008e03000019
:020000040000fa
:040254008e03000015
:020000040000fa
:040258008e03000011
:020000040000fa
:04025c008e0300000d
:020000040000fa
:040260008e03000009
:020000040000fa
:040264008e03000005
:020000040000fa
:040268008e03000001
:020000040000fa
:04026c008e030000fd
:020000040000fa
:040270008e030000f9
:020000040000fa
:040274008e030000f5
:020000040000fa
:040278008e030000f1
:020000040000fa
:04027c008e030000ed
:020000040000fa
:040280008e030000e9
:020000040000fa
:100400006f0421000eff2c000e0188000000000088
:10041000000020000000e000020032000001200087
:100420002002880014000700be0007000000e00062
:1004300003003a00001221000100200002003700f2
:100440000000200001002000810f70000100320038
:100450000f000700000020000000e0000200320052
:100460000000020000000000200702000000000061
:100470000040da000000fe00200020000000e00044
:1004800002003200100020009001880000000600e9
:10049000a1028800800478000000eb001f003700f4
:1004a000e284440054a0b4009905ba00e2844400f8
:1004b00054a0b4009906ba00e284440054a0b400e9
:1004c0000006eb00476fde00fd07b200ae018800ba
:1004d000636ce10003003a000ad801000000eb0061
:1004e0000e003700606ce10008003a00004deb00a0
:1004f0000a05e800020039003420ec000af0a000f0
:100500008b05e900f9ff3e00040037006168e10057
:10051000010032000086eb000b00070019c7ba008b
:100520000e04e0001905ba0003003a000a00e000da
:10053000dbff3a0000000600fe07b200ae028800b2
:100540008a047800f5ff37000cd0a300e20f4d00bd
:100550001c00390089027800354dba000a05e80010
:10056000020039003420ec000af0a0008b05e900fd
:100570000f003200254dba000a05e80002003900dc
:100580003420ec000af0a0008b05e90008003200de
:100590000c00e0000600320015cdba000a05e800a4
:1005a000020039003420ec000af0a0008b05e900bd
:1005b0008984e80054a0b4000b00e000e2ff3a0098
:1005c000000006009902ba00055d78008b05e9007d
:1005d000f7ff3200c82ade00055d78008b05e900d0
:1005e000f3ff32000c00e000f1ff320019ddba0029
:1005f000eeff37000000fa000108a9000080fa00b1
:10060000004006003600f800809fbe00829fbe00ba
:10061000849fbe00869fbe000000fa000068a9000b
:1006200021738000000820000080600000f0a70017
:100630000000ea000000e9004f00de000040780002
:100640000080fb00610060004700dd002173800036
:100650000170a1000100700020738800510507009f
:10066000bc0607000080fa004f03be004f02be0028
:100670004f01be004f00be003600f90000400600ea
:100680003600f800809fbe00829fbe00849fbe009f
:10069000869fbe000000fa000368a9005080800019
:1006a0006180800061004000e08048005080880048
:1006b00061808800760207000080fa004f03be00c8
:1006c0004f02be004f01be004f00be003600f900d1
:1006d00000400600801f78000000fa0001a8a90071
:1006e00000188000e081880010188000f0818800e8
:1006f0002018800000828800301880001082880056
:10070000401880002082880010c0b30011f0b700ac
:100710000080fa004f007800004006000040da0038
:100720000000fe000000050003f0a200889fbe004c
:100730008a9fbe008c1f78001b0107002201330036
:100740006450e1004f0032006420e10052003200aa
:1007500003826c0007003b000905d0000306d000af
:10076000820f54000c065d000200390002003200c6
:1007700089017800030678008582550004003d0059
:100780000003fd008103fd008502ea008b85420025
:10079000840f720002003b0060001000e08018002f
:1007a0006011b8000005eb007a28e1000a0039006a
:1007b00006007800c75ddd00f707b200878075008e
:1007c0002d003700828171000a0178006105600008
:1007d0008180d1000080d3008502e900f9ff3b0051
:1007e000060440008784480002003b0060041400b7
:1007f000e0841c000988a300070032008a81710090
:1008000082817100610164008904d1000884d300f1
:100810008b05e800170037000978a30013003a00a1
:100820000b00e000130034008b05e90008044400cd
:1008300089844c000a4474000978a3000d003a0032
:100840000b00e000070034008b05e90008044400b9
:1008500089844c0001003a000b0020000978a300b5
:10086000f7ff32000001eb000200370082817100c7
:100870000a017800910007000cf0a70001f0a00029
:10088000da0037006420e10002003a00838f6c0038
:10089000da0033000801be000200be00d3003700ba
:1008a000889fbe008a9fbe008c1f7800be00070094
:1008b000c500330003866c006450e1002e00320056
:1008c0006420e100330032006150e1002f0032006b
:1008d0006120e1003100320085855500eb07b00052
:1008e0000900200008042000050037000804440027
:1008f00089844c000a0031000603430087834b00c3
:100900000001530081815b00f8ff33000203be0049
:100910000800a0000804440089844c00f6ff390058
:10092000c639dd008301730001003200130020008e
:100930008904d1000884d3000998a300050032007f
:100940000800a7000300a0008904d1000884d30098
:100950008b05e8008904d1000884d3000001eb0076
:100960000281d2005500070001f0a1000cf0a700a1
:1009700001f0a0009d0037006420e1009f003200dc
:100980000801be000200be00f7ff37006120e10051
:100990009a0032006000b800f3ff3700000020002a
:1009a00001f82700f0ff370014002000ca003700cc
:1009b000f4ff2f00c80037000001be0065000700eb
:1009c0000470a70003f0a1006509b1001600320011
:1009d0000d0035006828e10006003500f0ff2f000b
:1009e000f1ff27000300e00013003b000100280096
:1009f0000000050000004000818048008502e900f9
:100a0000fcff3a0008003700f88f420002003c006b
:100a10008000eb00000005008100d1000080d300c1
:100a20008502e800fcff3a000300e00002003b0002
:100a300060001000e0801800000006000001be0009
:100a4000440007000470a70003f0a10003f8a3000e
:100a500013003a006509b1001000320009003500aa
:100a60006928e100020035000100280000000500af
:100a700000004000818048008502e900fcff3a0048
:100a800000000600f88f4200050035008100d1000b
:100a90000080d3008502e800fcff3a000000060059
:100aa0008000eb00000005004f89de008201780025
:100ab000a40037006011b800b200370081002000a8
:100ac000618055000b003d000b00200061fe2f00ef
:100ad0000100e1001d0034008281710061016400a9
:100ae0008904d1000884d3000000e800faff3a002e
:100af00071002000610064000300700002006000cb
:100b00000900320061044400e0844c000988a5001b
:100b1000050032008b05e8006808e10002003a0099
:100b20008904d1000884d300f20f20000258e100ac
:100b300005003d00c75ddd00f907b2008980750042
:100b400008007800000006000bf827008b007800f2
:100b500000000500c70ade00f107b200f50fb20081
:100b600008003200e1cf4200020032000170a00014
:100b700024000500810f7000010032000408050008
:100b800044000500810f700002003a0014000500c7
:100b90008502e9000000400081c04800fcff3b00e6
:100ba0000170a000240005000004be00e9ff07005a
:100bb0000003be000405be000200be00e5ff070002
:100bc000844f7500000006000200be006450e10082
:100bd000050036006420e100020036000968a30029
:100be00001003a000800be000160a0004f06780036
:100bf0004f05be004f04be0000000600f0ff2f00ae
:100c0000f1ff2700f9ff3700889fbe008a9fbe00d2
:100c10008c1f7800e4ff0700ebff330003866c00b5
:100c20006450e100240032006420e100270032001b
:100c30006150e100220032006120e1002100320019
:100c40008b854200eb07b1000134b800003ab800d0
:100c50000804420089844a00013ab8000030b80014
:100c60008880400009014a00040033000000400071
:100c700081804800020149008b05e900c909dd00b7
:100c8000830170000100320013002000c814de0050
:100c90004814dd004709de001200b200c808de007b
:100ca0000884700085ff070001f0a1000cf0a70088
:100cb00001f0a000cdff37006120e100cfff32003e
:100cc0000801be000200be00f7ff37006150e100de
:100cd000fcff3a00c9ff3700889fbe008a9fbe0014
:100ce000841f7800b0ff07004f0078001100330028
:100cf000f0ff2f00838f6c0006003b0004056500a9
:100d00000a00a7000800370009f0a6001000200024
:100d100008003700820f5400838f5c000300390005
:100d20001000200001003e000000200009f0a70094
:100d30000000ea004f05be004f04be000000e000c6
:100d400000000600881f7800030478000300e0001c
:100d500007003d0060001000e080180060011900ed
:100d6000e081190002003b0001f02d000300370074
:100d70000400070008f0a70001f0a0004f0478006d
:100d800000000600889fbe008a9fbe00008270009f
:100d90000402710004827100260032000004be00cb
:100da0000200be006011b8006b092000950220000f
:100db0000182cf000a0039000541b1000082cf0056
:100dc000070039000541b1000982cf000400390055
:100dd0000541b1000882cf00010039000541b10092
:100de00005425200120032000a003b00828171006d
:100df000610164008100d1000080d3008984d300a8
:100e00000884d3008b05e8000442e800f7ff3a00ad
:100e1000070037000804440089844c0000004800a3
:100e2000818048008b05e9000442e900f9ff3a009f
:100e300022ff07004f05be004f04be000000060061
:020000040000fa
:100e40000600fa00d3040700110507000f0207008f
:100e5000270207003102070023030700830407006d
:100e600064cea80064eea800254ea800010037005b
:100e700000000000bf0407000004e000fcff320097
:100e8000c0040700b7040700000f78009e00780038
:100e900068804000100078008000eb0005ff07002c
:100ea000323323003305240057ff070002002000df
:100eb000035824007afe0700d2cc2c00c30424007f
:100ec00051ff070010079800210798001e019000ad
:100ed000ae019000000020008120240070fe070079
:100ee00002002000030a24000ffe0700c0818800d2
:100ef000d18188009e007800648040001000780056
:100f00008000eb00ebfe07003233230033052400a2
:100f10003dff0700020020000358240060fe070088
:100f2000d2cc2c00c304240037ff07001007980020
:100f3000210798001e019000ae01900000002000e3
:100f40008120240056fe070002002000030a24002e
:100f5000f5fd070040818800518188001e80e8006f
:100f6000100078008000eb00d2fe0700323323002f
:100f70003305240024ff070002002000035824004a
:100f800047fe0700d2cc2c00c30424001eff07003c
:100f900010079800210798001e019000ae019000f4
:100fa00000002000812024003dfe070002002000f8
:100fb000030a2400dcfd070060818800718188003d
:100fc0009e00780066804000100078008000eb00f2
:100fd000b8fe070032332300330524000aff070060
:100fe00002002000035824002dfe0700d2cc2c0064
:100ff000c304240004ff070010079800210798008d
:101000001e019000ae01900000002000812024000d
:1010100023fe070002002000030a2400c2fd07008f
:10102000a0818800b18188001e007800100078003f
:101030008000eb009ffe07003233230033052400bd
:10104000f1fe0700020020000358240014fe0700f0
:10105000d2cc2c00c3042400ebfe0700100798003c
:10106000210798001e019000ae01900000002000b2
:10107000812024000afe070002002000030a240049
:10108000a9fd0700808188009181880079ff3700e1
:101090000000fa0006d0bf000080fb00cf80de0019
:1010a000f200200003002000820f5000838f5800c0
:1010b0007c003e00000601000f00370018003700da
:1010c000210037002b0037002c0037003700370095
:1010d000340037003f003700400037004b00370036
:1010e0004800370053003700540037005e003700d7
:1010f0005f003700690037000a30ef000c30ef0066
:101100000041eb006000b800930207000041eb00d3
:101110006000b8009002070010c0b30006f0b700ee
:101120005280800063808000803e2000010020000b
:10113000800f5100818f59005d00360020c0b30040
:1011400006f0b7005b0037000041eb000000200014
:10115000811c2400800207000041eb0000002000f9
:10116000811c24007c02070030c0b30006f0b700e9
:1011700050003700510007004e0037000041eb00df
:1011800000002000011f2400730207000041eb0053
:101190006000b8007002070060c0b30006f0b7003e
:1011a0004400370045000700420037000041eb00d3
:1011b00000002000011a2400670207000041eb0034
:1011c0006000b8006402070060c0b30006f0b7001a
:1011d0003800370039000700360037000041eb00c7
:1011e0006000b8005c0207000041eb000000200036
:1011f000011f240058020700a0c0b30006f0b7008a
:101200002c0037002d0007002a0037000041eb00ba
:101210006000b800500207000041eb000000200011
:10122000011a24004c020700a0c0b30006f0b7006a
:1012300020003700210007001e0037000041eb00ae
:101240000000200001172400430207000041eb00ca
:101250000000200001172c003f020700d0c0b3009f
:1012600006f0b70013003700140007001100370024
:101270000041eb000000200001172c00360207009f
:101280000041eb000000200001172400320207009b
:10129000f0c0b30006f0b7000600370007000700f3
:1012a000040037000670ef00000000000100370066
:1012b000000000000080fa00000006000200fa00b2
:1012c000881f78000040eb00004f780060818000ac
:1012d0007181800018c0b30002002000c3202400e8
:1012e000b1fd07000000e000010035000044eb0004
:1012f0000804e00019003200408180005181800024
:1013000018c0b30002002000831c2400a8fd0700c1
:101310000000e00001003c000044eb000804e00095
:101320000e003200c0818000d181800018c0b3005f
:1013300002002000031f24009dfd07000000e000c4
:1013400001003c000044eb000804e0000300320010
:1013500030c0b300004f78009d00370080818000ce
:101360009181800018c0b300020020000317240000
:101370008dfd07000000e000010035000044eb0097
:101380000804e0000e00320060818000718180005e
:1013900018c0b30002002000831c240082fd070057
:1013a0000000e000010035000044eb000804e0000c
:1013b0000300320040c0b300004f780084003700c3
:1013c000608180007181800018c0b300020020009d
:1013d000031f240076fd07000000e00001003c0030
:1013e0000044eb000804e000190032004081800056
:1013f0005181800018c0b30002002000831c24002b
:101400006bfd07000000e00001003c000044eb0021
:101410000804e0000e003200c0818000d18180000d
:1014200018c0b30002002000c32024005efd0700a6
:101430000000e000010035000044eb000804e0007b
:101440000300320010c0b300004f78006000370086
:10145000a0818000b181800018c0b300020020008c
:101460000317240050fd07000000e00001003500d4
:101470000044eb000804e0000e003200c081800050
:10148000d181800018c0b30002002000831c24001a
:1014900045fd07000000e000010035000044eb00be
:1014a0000804e0000300320020c0b300004f7800c1
:1014b00047003700408180005181800018c0b30090
:1014c00002002000831c240037fd07000000e0001c
:1014d000010035000044eb000804e0000300320086
:1014e00050c0b300004f78003900370060818000a1
:1014f0007181800018c0b30002002000031a24008c
:101500002bfd07000000e00001003c000044eb0060
:101510000804e0002e003200a0818000b18180002c
:1015200018c0b300020020000312240020fd0700b1
:101530000000e00001003c000044eb000804e00073
:1015400023003200408180005181800018c0b30028
:1015500002002000831c240015fd07000000e000ad
:1015600001003c000044eb000804e00018003200d9
:10157000c0818000d181800018c0b300020020002b
:10158000031a24000afd07000000e00001003c00ef
:101590000044eb000804e0000d003200a081800050
:1015a000b181800018c0b3000200200003122400a3
:1015b000fffc07000000e00001003c000044eb00dd
:1015c0000804e000020032000040eb00004f780009
:1015d0001e4078000004e00003003a0020c0b30081
:1015e00007f0b7001d0037001e407800e34f5000a1
:1015f00003003a0040c0b30007f0b70017003700ff
:101600001e407800e44f500003003a0050c0b30081
:1016100007f0b700110037001e407800e14f50007e
:1016200003003a0080c0b30007f0b7000b0037009a
:101630001e407800e24f500003003a0090c0b30013
:1016400007f0b700050037001e407800e54f500056
:1016500002003a00c0c0b30007f0b70007d0bf00d7
:101660008080fb0006d0bf000080fb000000e90086
:10167000808f50000200320007d0bf0006f0b70094
:101680004f0478000080fa00000006000000fa0015
:1016900013e1a90011e1a9001061a8001021a9001f
:1016a00081088000f0fc2f00008060008008880026
:1016b0000a21ef000621ef00404c2000700888004e
:1016c00000402b00600888002142800080ff2f002e
:1016d000008060000000a000204288000108a900ee
:1016e0002108a80011e1a8000080fa00000006000f
:1016f0000000fa0005e1a9000421a9000068a90082
:101700002068a80005e1a800000020008124240032
:101710000d0007000080fa00000006000000fa003b
:101720001fe1a9001e21a9000368a9002368a800e1
:101730001fe1a80000002000a14724007600070058
:101740000080fa00000006000400fa00881f7800fc
:10175000008fbe0021088000f0fc2f000080600098
:10176000200888001e0178009e0190000068290072
:1017700081c124004afc070018c0b30002f02f000a
:10178000f37724008afc07000000e00001003c0021
:101790000044eb000804e0005400320021088000ff
:1017a000f0fc2f00008060000040a00020088800ae
:1017b0001e0178009e0190000068290081c124006c
:1017c00037fc0700020020000310240034fc07004f
:1017d00018c0b30002f02f00f377240074fc070058
:1017e0000000e00001003c000044eb000804e000c1
:1017f0003200320021088000f0fc2f0000806000e1
:101800000050a000200888001e0178009e01900072
:101810000068290081c1240021fc0700020020008b
:10182000032824001efc070018c0b30002f02f009c
:10183000f37724005efc07000000e00001003c009c
:101840000044eb000804e000100032002108800092
:101850000003200001007000200888001e017800ad
:101860009e0190000068290081c124000cfc070043
:10187000020020000338240009fc07004efc07008a
:101880000000780010088800200037001e01780052
:101890009e0190000068290081c1240000fc07001f
:1018a0000200200003282400fdfb070042fc070083
:1018b0000000780010088800140037001e0178002e
:1018c0009e0190000068290081c12400f4fb0700fc
:1018d0000200200003102400f1fb070036fc070083
:1018e0000000780010088800080037001e0178000a
:1018f0009e0190000068290081c12400e8fb0700d8
:101900002dfc070000007800100888004f047800c4
:101910000080fa00000006000400fa00881f78002a
:10192000008fbe0021088000f0fc2f0000806000c6
:10193000200888001e0178009e01900000682900a0
:1019400081c12400d6fb070018c0b30002f02f00ad
:10195000f377240016fc07000000e00001003c00c3
:101960000044eb000804e00054003200210880002d
:10197000f0fc2f00008060000040a00020088800dc
:101980001e0178009e0190000068290081c124009a
:10199000c3fb07000200200003102400c0fb070067
:1019a00018c0b30002f02f00f377240000fc0700fa
:1019b0000000e00001003c000044eb000804e000ef
:1019c0003200320021088000f0fc2f00008060000f
:1019d0000050a000200888001e0178009e019000a1
:1019e0000068290081c12400adfb0700020020002f
:1019f00003282400aafb070018c0b30002f02f0040
:101a0000f3772400eafb07000000e00001003c003f
:101a10000044eb000804e0001000320021088000c0
:101a20000003200001007000200888001e017800db
:101a30009e0190000068290081c1240098fb0700e6
:101a4000020020000338240095fb0700dafb0700a2
:101a50000000780010088800200037001e01780080
:101a60009e0190000068290081c124008cfb0700c2
:101a7000020020000328240089fb0700cefb07009a
:101a80000000780010088800140037001e0178005c
:101a90009e0190000068290081c1240080fb07009e
:101aa00002002000031024007dfb0700c2fb07009a
:101ab0000000780010088800080037001e01780038
:101ac0009e0190000068290081c1240074fb07007a
:101ad000b9fb070000007800100888004f04780068
:101ae0000080fa00000006000000fa00116080008b
:101af00080ff2f00008060001060880000fa200046
:101b00002060880023aca800238ca800116180000d
:101b1000f03f2f000080600000a0a000106188004e
:101b20003000200020618800c3aca800c38ca8004e
:101b300011668000f03f2f000080600000a0a00030
:101b400010668800300020002066880001eca800a4
:101b50000080fa00000006000600fa00008fbe00b8
:101b6000424798004e4090000004e00004003a0014
:101b70001e0178009e019000a2808800b38088003a
:101b80004e4090000004e00004003a001e0178007e
:101b90009e019000e2808800f38088000080fa00b7
:101ba000000006000000fa00889fbe008a9fbe0069
:101bb0000481800015818000e0808000f180800039
:101bc00018c0b3000001be000400be0076fb070091
:101bd0000000e000010035000044eb000804e000d4
:101be0000f003200e8808000f98080000a818000c8
:101bf0001b8180000ed0bf000080fb00cf80de0084
:101c0000a9fb07000001be000a00be00c7fa0700da
:101c10000801be00bc000700008188001181880017
:101c20000481800015818000e0808000f1808000c8
:101c300018c0b3000001be000400be005cfb07003a
:101c40000000e00001003c000044eb000804e0005c
:101c50000f003200e8808000f98080000a81800057
:101c60001b8180000ed0bf000080fb00cf80de0013
:101c70008dfb07000001be000a00be00aafa0700a3
:101c80000801be00880007000081880011818800db
:101c9000008180001181800018c0b3006011b8007d
:101ca00041fb07000000e000010035000044eb00ac
:101cb0000804e00004003200c3cca90024eea80010
:101cc000c3eca80003003700c3eca90024cea80091
:101cd000c3cca80000818000118180005c00070057
:101ce0000200200003222400c7fb070053fb07006b
:101cf0000000780030668800c4808000d5808000b5
:101d0000a0808000b180800018c0b3000001be0038
:101d10000400be0024fb07000000e00001003500c5
:101d20000044eb000804e0000f003200a8808000af
:101d3000b9808000ca808000db8080000ed0bf00a8
:101d40000080fb00cf80de0057fb07000001be00d3
:101d50000a00be0075fa07000801be006a0007000d
:101d6000c0808800d1808800c4808000d580800039
:101d7000a0808000b180800018c0b3000001be00c8
:101d80000400be000afb07000000e00001003c0068
:101d90000044eb000804e0000f003200a88080003f
:101da000b9808000ca808000db8080000ed0bf0038
:101db0000080fb00cf80de003bfb07000001be007f
:101dc0000a00be0058fa07000801be0036000700ee
:101dd000c0808800d1808800c0808000d1808000d1
:101de00018c0b3006011b800f1fa07000000e0006d
:101df00001003c000044eb000804e0000400320055
:101e000023cca90015eea80023eca800030037009e
:101e100023eca90015cea80023cca800c080800028
:101e2000d18080000a000700020020000322240065
:101e300075fb070001fb0700000078003061880097
:101e40004f05be004f04be000080fa0000000600ef
:101e50000400fa00881f7800008fbe0018c0b3008d
:101e60006011b8001e0078009e009000d0fa0700b4
:101e70000000e00001003d000044eb000804e00029
:101e8000030032001e0078009e009000030037001f
:101e90001e0078009e00900001f0a2004f04780020
:101ea0000080fa00000006000800fa00881f780091
:101eb000008fbe00220798003307980018c0b300b7
:101ec0002e019000be0190001e0078009e00900040
:101ed000b7fa07000000e00001003c000044eb00fe
:101ee0000804e000030032001e0078009e0090000d
:101ef000020037002e009000be0090004f047800d2
:101f00000080fa00000006000800fa00881f780030
:101f1000008fbe00220798003307980018c0b30056
:101f20002e019000be0190001e0078009e009000df
:101f30009dfa07000000e000010035000044eb00be
:101f40000804e000030032001e0078009e009000ac
:101f5000020037002e009000be0090004f04780071
:101f60000080fa00000006000c00fa00881f7800cc
:101f7000008fbe002207980033079800440798009e
:101f80005507980018c0b3004e019000de01900084
:101f90001e0078009e00900085fa07000000e00017
:101fa00001003c000044eb000804e00004003200a3
:101fb0004e019000de019000028fbe000e0037003f
:101fc00018c0b3002e019000be0190001e007800e2
:101fd0009e00900074fa07000000e0000100350048
:101fe0000044eb000804e000030032002e019000e2
:101ff000be019000028fbe001e0078009e0090007f
:102000004f0478000080fa00000006000400fa0087
:10201000008fbe00b2fd2000930424001e00780053
:102020009e0090001efa07000200200043332400a7
:10203000f5fa07000080fa00000006000400fa002c
:10204000008fbe00b2fd2000930424001e00780023
:102050009e009000ecfa07000200200043332400a9
:102060000ffa07000080fa00000006000000fa00e6
:1020700021e3a9002143a80001198000f0cf2f001f
:1020800000806000001988002043a9000119800029
:10209000000e200001007000001988001119800056
:1020a000f0ff210000806000101988002343a80081
:1020b00011198000f0cf2f000080600010198800f7
:1020c0001119800030f82f00008060000040a0004f
:1020d000101988002203a9002223a90025e3a900e2
:1020e000f0c0b30024e3b70021198000f00f2e00e8
:1020f0008080600000f0200001007000201988003e
:102100003303a9004feea8006f2ea8002f6ea80081
:102110002e0ea8001e2ea8003063a80031e3a800f0
:1021200030c3a8003163a8002e03a8004119800025
:1021300000fc2f00008060004019880028e3a900ff
:1021400001a8a90021a8a80021e3a8000080fa00a6
:10215000000006000000fa002023a8000080fa001a
:10216000000006000000fa00c00321000080fa0011
:10217000000006000000fa0011d0bf000080fa0045
:10218000000006000000fa001170ef000080fa0065
:10219000000006000000fa00f0032000303a88003a
:1021a000213a8000f0f32f0000806000203a880080
:1021b000213a800000fe2f00008060000000a00097
:1021c000203a88001200200080072000a10920008a
:1021d0003374200080497800814978008249780072
:1021e000103a8000000178000200a0006004200086
:1021f000710520002374200080497800814978000f
:102200008249780000000000113a80000000270099
:102210008080600000002100808f5000faff3a00ab
:1022200000000000113a80000002200000806000e1
:102230000000e000fbff32000080fa000000060012
:020000040000fa
:1022400000100000080000008000000008100000de
:102250000600000080000000121000002a000000ac
:10226000800000000e10000002000000820000004c
:102270000f0000003c1000000a0000008000000079
:1022800010100000020000008000000000000000ac
:020000040000fa
:102290000000fa000e2eef001e2eef002e2eef0093
:1022a0003e2eef004e2eef005e2eef006e2eef0062
:1022b000214ea90060cea90060eea90011cea900b0
:1022c00011eea90020cea90020eea9000080fa009e
:0422d0000000060004
:020000040000fa
:02000004000af0
:04afe000cfff00009f
:020000040000fa
:02000004000af0
:04afe400ffff00006b
:020000040000fa
:02000004000af0
:04afe8007fff0000e7
:020000040000fa
:02000004000af0
:04afec005fff000003
:020000040000fa
:02000004000af0
:04aff00038ff000026
:020000040000fa
:02000004000af0
:04aff400ffff00005b
:00000001FF
