:020000040000fa
:080000000002040000000000f2
:020000040000fa
:04000800c20300002f
:020000040000fa
:04000c00c20300002b
:020000040000fa
:04001000c203000027
:020000040000fa
:04001400c203000023
:020000040000fa
:04001800c20300001f
:020000040000fa
:04001c00c20300001b
:020000040000fa
:04002000c203000017
:020000040000fa
:04002400c203000013
:020000040000fa
:04002800c20300000f
:020000040000fa
:04002c00c20300000b
:020000040000fa
:04003000c203000007
:020000040000fa
:040034006203000063
:020000040000fa
:04003800c2030000ff
:020000040000fa
:04003c00c2030000fb
:020000040000fa
:04004000c2030000f7
:020000040000fa
:04004400c2030000f3
:020000040000fa
:04004800fa020000b8
:020000040000fa
:04004c00c2030000eb
:020000040000fa
:04005000c2030000e7
:020000040000fa
:04005400c2030000e3
:020000040000fa
:04005800c2030000df
:020000040000fa
:04005c00a0030000fd
:020000040000fa
:04006000c2030000d7
:020000040000fa
:04006400c2030000d3
:020000040000fa
:04006800c2030000cf
:020000040000fa
:04006c00c2030000cb
:020000040000fa
:04007000c2030000c7
:020000040000fa
:04007400c2030000c3
:020000040000fa
:04007800c2030000bf
:020000040000fa
:04007c00c2030000bb
:020000040000fa
:04008000c2030000b7
:020000040000fa
:04008400c2030000b3
:020000040000fa
:04008800c2030000af
:020000040000fa
:04008c00c2030000ab
:020000040000fa
:04009000c2030000a7
:020000040000fa
:04009400c2030000a3
:020000040000fa
:04009800c20300009f
:020000040000fa
:04009c00c20300009b
:020000040000fa
:0400a000c203000097
:020000040000fa
:0400a400c203000093
:020000040000fa
:0400a800c20300008f
:020000040000fa
:0400ac00c20300008b
:020000040000fa
:0400b000c203000087
:020000040000fa
:0400b400c203000083
:020000040000fa
:0400b800c20300007f
:020000040000fa
:0400bc00c20300007b
:020000040000fa
:0400c000c203000077
:020000040000fa
:0400c400c203000073
:020000040000fa
:0400c800c20300006f
:020000040000fa
:0400cc00c20300006b
:020000040000fa
:0400d000c203000067
:020000040000fa
:0400d400c203000063
:020000040000fa
:0400d800c20300005f
:020000040000fa
:0400dc00c20300005b
:020000040000fa
:0400e000c203000057
:020000040000fa
:0400e400c203000053
:020000040000fa
:0400e800c20300004f
:020000040000fa
:0400ec00c20300004b
:020000040000fa
:0400f000c203000047
:020000040000fa
:0400f400c203000043
:020000040000fa
:0400f800c20300003f
:020000040000fa
:0400fc00c20300003b
:020000040000fa
:04010000c203000036
:020000040000fa
:04010400c203000032
:020000040000fa
:04010800c20300002e
:020000040000fa
:04010c00c20300002a
:020000040000fa
:04011000c203000026
:020000040000fa
:04011400c203000022
:020000040000fa
:04011800c20300001e
:020000040000fa
:04011c00c20300001a
:020000040000fa
:04012000c203000016
:020000040000fa
:04012400c203000012
:020000040000fa
:04012800c20300000e
:020000040000fa
:04012c00c20300000a
:020000040000fa
:04013000c203000006
:020000040000fa
:04013400c203000002
:020000040000fa
:04013800c2030000fe
:020000040000fa
:04013c00c2030000fa
:020000040000fa
:04014000c2030000f6
:020000040000fa
:04014400c2030000f2
:020000040000fa
:04014800c2030000ee
:020000040000fa
:04014c00c2030000ea
:020000040000fa
:04015000c2030000e6
:020000040000fa
:04015400c2030000e2
:020000040000fa
:04015800c2030000de
:020000040000fa
:04015c00c2030000da
:020000040000fa
:04016000c2030000d6
:020000040000fa
:04016400c2030000d2
:020000040000fa
:04016800c2030000ce
:020000040000fa
:04016c00c2030000ca
:020000040000fa
:04017000c2030000c6
:020000040000fa
:04017400c2030000c2
:020000040000fa
:04017800c2030000be
:020000040000fa
:04017c00c2030000ba
:020000040000fa
:04018000c2030000b6
:020000040000fa
:04018400c2030000b2
:020000040000fa
:04018800c2030000ae
:020000040000fa
:04018c00c2030000aa
:020000040000fa
:04019000c2030000a6
:020000040000fa
:04019400c2030000a2
:020000040000fa
:04019800c20300009e
:020000040000fa
:04019c00c20300009a
:020000040000fa
:0401a000c203000096
:020000040000fa
:0401a400c203000092
:020000040000fa
:0401a800c20300008e
:020000040000fa
:0401ac00c20300008a
:020000040000fa
:0401b000c203000086
:020000040000fa
:0401b400c203000082
:020000040000fa
:0401b800c20300007e
:020000040000fa
:0401bc00c20300007a
:020000040000fa
:0401c000c203000076
:020000040000fa
:0401c400c203000072
:020000040000fa
:0401c800c20300006e
:020000040000fa
:0401cc00c20300006a
:020000040000fa
:0401d000c203000066
:020000040000fa
:0401d400c203000062
:020000040000fa
:0401d800c20300005e
:020000040000fa
:0401dc00c20300005a
:020000040000fa
:0401e000c203000056
:020000040000fa
:0401e400c203000052
:020000040000fa
:0401e800c20300004e
:020000040000fa
:0401ec00c20300004a
:020000040000fa
:0401f000c203000046
:020000040000fa
:0401f400c203000042
:020000040000fa
:0401f800c20300003e
:020000040000fa
:0401fc00c20300003a
:020000040000fa
:04020000c203000035
:020000040000fa
:04020400c203000031
:020000040000fa
:04020800c20300002d
:020000040000fa
:04020c00c203000029
:020000040000fa
:04021000c203000025
:020000040000fa
:04021400c203000021
:020000040000fa
:04021800c20300001d
:020000040000fa
:04021c00c203000019
:020000040000fa
:04022000c203000015
:020000040000fa
:04022400c203000011
:020000040000fa
:04022800c20300000d
:020000040000fa
:04022c00c203000009
:020000040000fa
:04023000c203000005
:020000040000fa
:04023400c203000001
:020000040000fa
:04023800c2030000fd
:020000040000fa
:04023c00c2030000f9
:020000040000fa
:04024000c2030000f5
:020000040000fa
:04024400c2030000f1
:020000040000fa
:04024800c2030000ed
:020000040000fa
:04024c00c2030000e9
:020000040000fa
:04025000c2030000e5
:020000040000fa
:04025400c2030000e1
:020000040000fa
:04025800c2030000dd
:020000040000fa
:04025c00c2030000d9
:020000040000fa
:04026000c2030000d5
:020000040000fa
:04026400c2030000d1
:020000040000fa
:04026800c2030000cd
:020000040000fa
:04026c00c2030000c9
:020000040000fa
:04027000c2030000c5
:020000040000fa
:04027400c2030000c1
:020000040000fa
:04027800c2030000bd
:020000040000fa
:04027c00c2030000b9
:020000040000fa
:04028000c2030000b5
:020000040000fa
:100400006f0221000eff2c000e018800000000008a
:10041000000020000000e000020032000001200087
:100420002002880014000700d80007000000e00048
:1004300003003a0020b22000010020000200370033
:100440000000200001002000810f70000100320038
:100450000f000700000020000000e0000200320052
:1004600000000200000000003c0b02000000000041
:100470000040da000000fe00200020000000e00044
:1004800002003200100020009001880000000600e9
:10049000a1028800800478000000eb001f003700f4
:1004a000e284440054a0b4009905ba00e2844400f8
:1004b00054a0b4009906ba00e284440054a0b400e9
:1004c0000006eb00476fde00fd07b200ae018800ba
:1004d000636ce10003003a000ad801000000eb0061
:1004e0000e003700606ce10008003a00004deb00a0
:1004f0000a05e800020039003420ec000af0a000f0
:100500008b05e900f9ff3e00040037006168e10057
:10051000010032000086eb000b00070019c7ba008b
:100520000e04e0001905ba0003003a000a00e000da
:10053000dbff3a0000000600fe07b200ae028800b2
:100540008a047800f5ff37000cd0a300e20f4d00bd
:100550001c00390089027800354dba000a05e80010
:10056000020039003420ec000af0a0008b05e900fd
:100570000f003200254dba000a05e80002003900dc
:100580003420ec000af0a0008b05e90008003200de
:100590000c00e0000600320015cdba000a05e800a4
:1005a000020039003420ec000af0a0008b05e900bd
:1005b0008984e80054a0b4000b00e000e2ff3a0098
:1005c000000006009902ba00055d78008b05e9007d
:1005d000f7ff3200c82ade00055d78008b05e900d0
:1005e000f3ff32000c00e000f1ff320019ddba0029
:1005f000eeff37003600f800809fbe00829fbe00ed
:10060000849fbe00869fbe000000fa000108a9007a
:1006100021718000004020000080600000f0a700f1
:100620000000ea000000e9004f00de000040780012
:100630000080fb00610060004a00dd002171800045
:1006400001a0a10001007000207188000cd0bf0043
:100650000004e0000b003a000041eb000000200025
:10066000011a2400090207000041eb0000002000ed
:10067000011a24000502070010c0b3000cf0b700f7
:10068000090037000041eb0000002000011a2c0097
:10069000fe0107000041eb0000002000011a2c00c1
:1006a000fa0107000c70ef000080fa004f03be0053
:1006b0004f02be004f01be004f00be003600f900e1
:1006c000004006003600f800809fbe00829fbe00fa
:1006d000849fbe00869fbe000000fa000068a9004b
:1006e00021738000000420000080600000f0a7005b
:1006f0000000ea000000e9004f00de000040780042
:100700000080fb00610060004600dd002173800076
:100710000160a1000100700020738800ee01070055
:100720001f0307000080fa004f03be004f02be0007
:100730004f01be004f00be003600f9000040060029
:10074000809fbe000000fa0001a8a90001188000e7
:1007500020002100010878001118800020002100ed
:10076000110098002118800020002100210098002d
:1007700010c0b3000af0b7000080fa004f00be00be
:10078000004006000040da000000fe000000050006
:1007900003f0a200889fbe008a9fbe008c1f7800d5
:1007a000f8000700ff0033006450e1004f00320002
:1007b0006420e1005200320003826c0007003b001d
:1007c0000905d0000306d000820f54000c065d001e
:1007d0000200390002003200890178000306780027
:1007e0008582550004003d000003fd008103fd00eb
:1007f0008502ea008b854200840f720002003b00f4
:1008000060001000e08018006011b8000005eb00e7
:100810007a28e1000a00390006007800c75ddd0093
:10082000f707b200878075002d00370082817100c4
:100830000a017800610560008180d1000080d3004a
:100840008502e900f9ff3b00060440008784480068
:1008500002003b0060041400e0841c000988a3002f
:10086000070032008a817100828171006101640099
:100870008904d1000884d3008b05e80017003700f5
:100880000978a30013003a000b00e00013003400c5
:100890008b05e9000804440089844c000a44740074
:1008a0000978a3000d003a000b00e00007003400b7
:1008b0008b05e9000804440089844c0001003a00db
:1008c0000b0020000978a300f7ff32000001eb00c5
:1008d00002003700828171000a0178006e00070073
:1008e0000cf0a70001f0a000b70037006420e10081
:1008f00002003a00838f6c00b70033000801be008d
:100900000200be00b0003700889fbe008a9fbe0074
:100910008c1f78009b000700a200330003866c0048
:100920006450e1002e0032006420e1003300320008
:100930006150e1002f0032006120e10031003200ff
:1009400085855500eb07b000090020000804200051
:10095000050037000804440089844c000a00310077
:100960000603430087834b000001530081815b0035
:10097000f8ff33000203be000800a0000804440092
:1009800089844c00f6ff3900c639dd00830173000d
:1009900001003200130020008904d1000884d30034
:1009a0000998a300050032000800a7000300a0007a
:1009b0008904d1000884d3008b05e8008904d100a4
:1009c0000884d3000001eb000281d200320007004e
:1009d00001f0a1000cf0a70001f0a0007a003700a0
:1009e0006420e1007c0032000801be000200be006d
:1009f000f7ff37006120e100770032006000b800a7
:100a0000f3ff37000000200001f82700f0ff370057
:100a100014002000a7003700f4ff2f00a5003700c6
:100a20000001be00420007000470a70003f0a1000f
:100a300003f8a30013003a006509b100100032006a
:100a4000090035006928e100020035000100280096
:100a50000000050000004000818048008502e90098
:100a6000fcff3a0000000600f88f42000500350048
:100a70008100d1000080d3008502e800fcff3a002d
:100a8000000006008000eb00000005004f89de003a
:100a900082017800a20037008100200061805500ab
:100aa0000b003d000b00200061fe2f000100e10063
:100ab0001d00340082817100610164008904d1004d
:100ac0000884d3000000e800faff3a00710020001b
:100ad0006100640003007000020060000900320041
:100ae00061044400e0844c000988a5000500320040
:100af0008b05e8006808e10002003a008904d10093
:100b00000884d300f20f20000258e10005003d00e8
:100b1000c75ddd00f907b200898075000800780024
:100b2000000006000bf827008b007800000005008d
:100b3000c70ade00f107b200f50fb200080032006c
:100b4000e1cf4200020032000170a0002400050045
:100b5000810f700001003200040805004400050008
:100b6000810f700002003a00140005008502e900c0
:100b70000000400081c04800fcff3b000170a00065
:100b8000240005000004be00e9ff07000003be00ca
:100b90000405be000200be00e5ff0700844f75009b
:100ba000000006000200be006450e10005003600af
:100bb0006420e100020036000968a30001003a0049
:100bc0000800be000160a0004f0678004f05be007f
:100bd0004f04be0000000600f0ff2f00f1ff2700c9
:100be000f9ff3700889fbe008a9fbe008c1f7800e7
:100bf000e4ff0700ebff330003866c006450e10064
:100c0000240032006420e100270032006150e1003e
:100c1000220032006120e100210032008b85420079
:100c2000eb07b1000134b800003ab80008044200f4
:100c300089844a00013ab8000030b800888040003a
:100c400009014a0004003300000040008180480090
:100c5000020149008b05e900c909dd00830170002c
:100c60000100320013002000c814de004814dd002b
:100c70004709de001200b200c808de0008847000d8
:100c800085ff070001f0a1000cf0a70001f0a00013
:100c9000cdff37006120e100cfff32000801be0028
:100ca0000200be00f7ff37006150e100fcff3a0090
:100cb000c9ff3700889fbe008a9fbe00841f78004e
:100cc000b0ff07004f00780011003300f0ff2f0045
:100cd000838f6c0006003b00040565000a00a70036
:100ce0000800370009f0a6001000200008003700b7
:100cf000820f5400838f5c00030039001000200035
:100d000001003e000000200009f0a7000000ea00fa
:100d10004f05be004f04be000000e00000000600ca
:100d2000881f7800030478000300e00007003d00fe
:100d300060001000e080180060011900e0811900d7
:100d400002003b0001f02d00030037000400070003
:100d500008f0a70001f0a0004f0478000000060092
:100d6000889fbe008a9fbe0000827000040271004e
:100d700004827100260032000004be000200be00a2
:100d80006011b8006b092000950220000182cf009d
:100d90000a0039000541b1000082cf000700390088
:100da0000541b1000982cf00040039000541b100be
:100db0000882cf00010039000541b1000542520010
:100dc000120032000a003b00828171006101640060
:100dd0008100d1000080d3008984d3000884d3002f
:100de0008b05e8000442e800f7ff3a0007003700ef
:100df0000804440089844c000000480081804800b9
:100e00008b05e9000442e900f9ff3a0022ff0700e0
:0c0e10004f05be004f04be0000000600ad
:020000040000fa
:100e1c000000fa001160800080ff2f00008060004d
:100e2c001060880000fa20002060880023aca80025
:100e3c00238ca80011618000f03f2f00008060001f
:100e4c0000a0a00010618800300020002061880004
:100e5c00c3aca800c38ca80011668000f03f2f0023
:100e6c000080600000a0a000106688003000200008
:100e7c002066880001eca8000080fa000000060043
:100e8c000600fa00008fbe00424798004e409000ca
:100e9c000004e00004003a001e0178009e0190005e
:100eac0092808800a38088004e4090000004e000ef
:100ebc0004003a001e0178009e019000d280880048
:100ecc00e38088000080fa00000006000000fa00b1
:100edc00889fbe008a9fbe00f48080000581800040
:100eec00d0808000e180800018c0b3000001be00fb
:100efc000400be00c3fe07000000e0000100350046
:100f0c000044eb000804e0000f003200d8808000a1
:100f1c00e9808000fa8080000b8180000ed0bf0039
:100f2c000080fb00cf80de00d5fe07000001be0074
:100f3c000a00be0014fe07000801be00bc0007003a
:100f4c00f080880001818800f48080000581800099
:100f5c00d0808000e180800018c0b3000001be008a
:100f6c000400be00a9fe07000000e00001003c00e8
:100f7c000044eb000804e0000f003200d880800031
:100f8c00e9808000fa8080000b8180000ed0bf00c9
:100f9c000080fb00cf80de00b9fe07000001be0020
:100fac000a00be00f7fd07000801be00880007001c
:100fbc00f080880001818800f08080000181800031
:100fcc0018c0b3006011b80090fe07000000e000ec
:100fdc0001003c000044eb000804e0000400320077
:100fec00c3cca90024eea800c3eca8000300370072
:100ffc00c3eca90024cea800c3cca800f0808000cc
:10100c00018180005c000700020020000322240004
:10101c00f1fe07007ffe07000000780030668800b4
:10102c00b4808000c580800090808000a18080000a
:10103c0018c0b3000001be000400be0071fe070022
:10104c000000e000010035000044eb000804e00063
:10105c000f00320098808000a9808000ba80800048
:10106c00cb8080000ed0bf000080fb00cf80de0064
:10107c0083fe07000001be000a00be00c2fd07008f
:10108c000801be006a000700b0808800c18088009b
:10109c00b4808000c580800090808000a18080009a
:1010ac0018c0b3000001be000400be0057fe0700cc
:1010bc000000e00001003c000044eb000804e000ec
:1010cc000f00320098808000a9808000ba808000d8
:1010dc00cb8080000ed0bf000080fb00cf80de00f4
:1010ec0067fe07000001be000a00be00a5fd070058
:1010fc000801be0036000700b0808800c18088005f
:10110c00b0808000c180800018c0b3006011b800ae
:10111c003efe07000000e00001003c000044eb0034
:10112c000804e0000400320023cca90015eea8004e
:10113c0023eca8000300370023eca90015cea8006f
:10114c0023cca800b0808000c18080000a0007007a
:10115c0002002000032224009ffe07002dfe070042
:10116c0000007800306188004f05be004f04be00bf
:10117c000080fa00000006000400fa00881f7800c6
:10118c00008fbe0018c0b3006011b8001e007800bc
:10119c009e0090001dfe07000000e00001003d00d5
:1011ac000044eb000804e000030032001e0078004d
:1011bc009e009000030037001e0078009e009000f7
:1011cc0001f0a2004f0478000080fa000000060035
:1011dc000800fa00881f7800008fbe0022079800d4
:1011ec003307980018c0b3002e019000be01900088
:1011fc001e0078009e00900004fe07000000e00036
:10120c0001003c000044eb000804e0000300320045
:10121c001e0078009e009000020037002e00900007
:10122c00be0090004f0478000080fa000000060019
:10123c000800fa00881f7800008fbe002207980073
:10124c003307980018c0b3002e019000be01900027
:10125c001e0078009e009000eafd07000000e000f0
:10126c00010035000044eb000804e00003003200ec
:10127c001e0078009e009000020037002e009000a7
:10128c00be0090004f0478000080fa0000000600b9
:10129c000c00fa00881f7800008fbe00220798000f
:1012ac0033079800440798005507980018c0b300fe
:1012bc004e019000de0190001e0078009e00900010
:1012cc00d2fd07000000e00001003c000044eb00f0
:1012dc000804e000040032004e019000de01900092
:1012ec00028fbe000e00370018c0b3002e01900014
:1012fc00be0190001e0078009e009000c1fd07000a
:10130c000000e000010035000044eb000804e000a0
:10131c00030032002e019000be019000028fbe002f
:10132c001e0078009e0090004f0478000080fa00a8
:10133c00000006000400fa00008fbe00b2fd200081
:10134c00930424001e0078009e0090006bfd0700a3
:10135c0002002000433324001ffe07000080fa0027
:10136c00000006000400fa00008fbe00b2fd200051
:10137c00930424001e0078009e00900016fe0700c7
:10138c0002002000433324005cfd07000080fa00bb
:10139c00000006000000fa0021e3a9002143a80088
:1013ac0001198000f0cf2f00008060000019880028
:1013bc002043a90001198000000e200001007000dc
:1013cc000019880011198000f0ff210000806000d6
:1013dc00101988002343a80011198000f0cf2f00aa
:1013ec0000806000101988001119800030f82f005f
:1013fc00008060000030a000101988002203a900b2
:10140c002223a90025e3a900f0c0b30024e3b70010
:10141c0021198000f00f2e008080600000f0200069
:10142c0001007000201988003303a9002e0ea800bb
:10143c002f6ea8006f2ea80030c3a8003163a8003f
:10144c002e03a8004119800000fc2f0000806000d2
:10145c004019880028e3a90001a8a90021a8a80028
:10146c0021e3a8000080fa00000006000000fa004a
:10147c002023a8000080fa00000006000000fa00fb
:10148c00200021000080fa00000006000000fa0095
:10149c000ad0bf000080fa00000006000000fa002d
:1014ac000a70ef000080fa00000006000000fa004d
:1014bc00f0032000303a8800213a8000f0f32f002e
:1014cc0000806000203a8800213a800000fe2f0046
:1014dc00008060000000a000203a8800120020006c
:1014ec0080072000a1092000337420008049780077
:1014fc008149780082497800103a80000001780018
:10150c000200a0006004200071052000237420005c
:10151c0080497800814978008249780000000000f9
:10152c00113a80000000270080806000000021003c
:10153c00808f5000faff3a0000000000113a800042
:10154c0000022000008060000000e000fbff320081
:10155c000080fa00000006000000fa0013e1a90068
:10156c0011e1a9001061a8001021a90081088000d8
:10157c00f0fc2f0000806000800888000a21ef003a
:10158c000621ef00404c20007008880000402b0022
:10159c00600888002142800080ff2f0000806000de
:1015ac000000a000204288000108a9002108a80022
:1015bc0011e1a8000080fa00000006000000fa000b
:1015cc0005e1a90021088000000320000100700043
:1015dc00200888000421a90050c3200010088800ae
:1015ec000068a9002068a80005e1a8000080fa00a6
:1015fc00000006000000fa000e2eef001e2eef0079
:10160c002e2eef003e2eef004e2eef005e2eef0042
:10161c006e2eef00214ea90060cea90060eea9004d
:10162c0011cea90011eea90020cea90020eea90030
:08163c000080fa000000060026
:020000040000fa
:101644000c100000020000008000000010100000d8
:1016540016000000800000000e10000002000000d0
:1016640080000000001000000c000000800000005a
:041674000000000072
:020000040000fa
:101678000000fa008eff0700dfff0700b7ff070032
:10168800cfff0700e3fd070043ff070064cea80073
:0c16980064eea800254ea800ffff3700fc
:020000040000fa
:02000004000af0
:04afe000cfff00009f
:020000040000fa
:02000004000af0
:04afe400ffff00006b
:020000040000fa
:02000004000af0
:04afe8007fff0000e7
:020000040000fa
:02000004000af0
:04afec005fff000003
:020000040000fa
:02000004000af0
:04aff00038ff000026
:020000040000fa
:02000004000af0
:04aff400ffff00005b
:00000001FF
