:020000040000fa
:080000000002040000000000f2
:020000040000fa
:040008007003000081
:020000040000fa
:04000c00700300007d
:020000040000fa
:040010007003000079
:020000040000fa
:040014007003000075
:020000040000fa
:040018007003000071
:020000040000fa
:04001c00700300006d
:020000040000fa
:040020007003000069
:020000040000fa
:040024007003000065
:020000040000fa
:040028007003000061
:020000040000fa
:04002c00700300005d
:020000040000fa
:040030007003000059
:020000040000fa
:0400340002030000c3
:020000040000fa
:040038007003000051
:020000040000fa
:04003c00700300004d
:020000040000fa
:040040007003000049
:020000040000fa
:040044007003000045
:020000040000fa
:04004800fa020000b8
:020000040000fa
:04004c00700300003d
:020000040000fa
:040050007003000039
:020000040000fa
:040054007003000035
:020000040000fa
:040058007003000031
:020000040000fa
:04005c004c03000051
:020000040000fa
:040060007003000029
:020000040000fa
:040064007003000025
:020000040000fa
:040068007003000021
:020000040000fa
:04006c00700300001d
:020000040000fa
:040070007003000019
:020000040000fa
:040074007003000015
:020000040000fa
:040078007003000011
:020000040000fa
:04007c00700300000d
:020000040000fa
:040080007003000009
:020000040000fa
:040084007003000005
:020000040000fa
:040088007003000001
:020000040000fa
:04008c0070030000fd
:020000040000fa
:0400900070030000f9
:020000040000fa
:040094002203000043
:020000040000fa
:0400980070030000f1
:020000040000fa
:04009c0070030000ed
:020000040000fa
:0400a00070030000e9
:020000040000fa
:0400a40070030000e5
:020000040000fa
:0400a80070030000e1
:020000040000fa
:0400ac0070030000dd
:020000040000fa
:0400b00070030000d9
:020000040000fa
:0400b40070030000d5
:020000040000fa
:0400b80070030000d1
:020000040000fa
:0400bc0070030000cd
:020000040000fa
:0400c00070030000c9
:020000040000fa
:0400c40070030000c5
:020000040000fa
:0400c80070030000c1
:020000040000fa
:0400cc0070030000bd
:020000040000fa
:0400d00070030000b9
:020000040000fa
:0400d40070030000b5
:020000040000fa
:0400d80070030000b1
:020000040000fa
:0400dc0070030000ad
:020000040000fa
:0400e00070030000a9
:020000040000fa
:0400e40070030000a5
:020000040000fa
:0400e80070030000a1
:020000040000fa
:0400ec00700300009d
:020000040000fa
:0400f0007003000099
:020000040000fa
:0400f4007003000095
:020000040000fa
:0400f8007003000091
:020000040000fa
:0400fc00700300008d
:020000040000fa
:040100007003000088
:020000040000fa
:040104007003000084
:020000040000fa
:040108007003000080
:020000040000fa
:04010c00700300007c
:020000040000fa
:040110007003000078
:020000040000fa
:040114007003000074
:020000040000fa
:040118007003000070
:020000040000fa
:04011c00700300006c
:020000040000fa
:040120007003000068
:020000040000fa
:040124007003000064
:020000040000fa
:040128007003000060
:020000040000fa
:04012c00700300005c
:020000040000fa
:040130007003000058
:020000040000fa
:040134007003000054
:020000040000fa
:040138007003000050
:020000040000fa
:04013c00700300004c
:020000040000fa
:040140007003000048
:020000040000fa
:040144007003000044
:020000040000fa
:040148007003000040
:020000040000fa
:04014c00700300003c
:020000040000fa
:040150007003000038
:020000040000fa
:040154007003000034
:020000040000fa
:040158007003000030
:020000040000fa
:04015c00700300002c
:020000040000fa
:040160007003000028
:020000040000fa
:040164007003000024
:020000040000fa
:040168007003000020
:020000040000fa
:04016c00700300001c
:020000040000fa
:040170007003000018
:020000040000fa
:040174007003000014
:020000040000fa
:040178007003000010
:020000040000fa
:04017c00700300000c
:020000040000fa
:040180007003000008
:020000040000fa
:040184007003000004
:020000040000fa
:040188007003000000
:020000040000fa
:04018c0070030000fc
:020000040000fa
:0401900070030000f8
:020000040000fa
:0401940070030000f4
:020000040000fa
:0401980070030000f0
:020000040000fa
:04019c0070030000ec
:020000040000fa
:0401a00070030000e8
:020000040000fa
:0401a40070030000e4
:020000040000fa
:0401a80070030000e0
:020000040000fa
:0401ac0070030000dc
:020000040000fa
:0401b00070030000d8
:020000040000fa
:0401b40070030000d4
:020000040000fa
:0401b80070030000d0
:020000040000fa
:0401bc0070030000cc
:020000040000fa
:0401c00070030000c8
:020000040000fa
:0401c40070030000c4
:020000040000fa
:0401c80070030000c0
:020000040000fa
:0401cc0070030000bc
:020000040000fa
:0401d00070030000b8
:020000040000fa
:0401d40070030000b4
:020000040000fa
:0401d80070030000b0
:020000040000fa
:0401dc0070030000ac
:020000040000fa
:0401e00070030000a8
:020000040000fa
:0401e40070030000a4
:020000040000fa
:0401e80070030000a0
:020000040000fa
:0401ec00700300009c
:020000040000fa
:0401f0007003000098
:020000040000fa
:0401f4007003000094
:020000040000fa
:0401f8007003000090
:020000040000fa
:0401fc00700300008c
:020000040000fa
:040200007003000087
:020000040000fa
:040204007003000083
:020000040000fa
:04020800700300007f
:020000040000fa
:04020c00700300007b
:020000040000fa
:040210007003000077
:020000040000fa
:040214007003000073
:020000040000fa
:04021800700300006f
:020000040000fa
:04021c00700300006b
:020000040000fa
:040220007003000067
:020000040000fa
:040224007003000063
:020000040000fa
:04022800700300005f
:020000040000fa
:04022c00700300005b
:020000040000fa
:040230007003000057
:020000040000fa
:040234007003000053
:020000040000fa
:04023800700300004f
:020000040000fa
:04023c00700300004b
:020000040000fa
:040240007003000047
:020000040000fa
:040244007003000043
:020000040000fa
:04024800700300003f
:020000040000fa
:04024c00700300003b
:020000040000fa
:040250007003000037
:020000040000fa
:040254007003000033
:020000040000fa
:04025800700300002f
:020000040000fa
:04025c00700300002b
:020000040000fa
:040260007003000027
:020000040000fa
:040264007003000023
:020000040000fa
:04026800700300001f
:020000040000fa
:04026c00700300001b
:020000040000fa
:040270007003000017
:020000040000fa
:040274007003000013
:020000040000fa
:04027800700300000f
:020000040000fa
:04027c00700300000b
:020000040000fa
:040280007003000007
:020000040000fa
:100400004f0421000eff27000e01880000000000ad
:10041000000020000000e000020032000001200087
:100420002002880014000700af0007000000e00071
:1004300003003a00602f2100010020000200370075
:100440000000200001002000810f70000100320038
:100450000f000700000020000000e0000200320052
:100460000000020000000000fe0c0200000000007e
:100470000040da000000fe00800020000000e000e4
:1004800002003200002020009001880000000600d9
:10049000a1028800800478000000eb001f003700f4
:1004a000e284440054a0b4009905ba00e2844400f8
:1004b00054a0b4009906ba00e284440054a0b400e9
:1004c0000006eb00476fde00fd07b200ae018800ba
:1004d000636ce10003003a000ad801000000eb0061
:1004e0000e003700606ce10008003a00004deb00a0
:1004f0000a05e800020039003420ec000af0a000f0
:100500008b05e900f9ff3e00040037006168e10057
:10051000010032000086eb000b00070019c7ba008b
:100520000e04e0001905ba0003003a000a00e000da
:10053000dbff3a0000000600fe07b200ae028800b2
:100540008a047800f5ff37000cd0a300e20f4d00bd
:100550001c00390089027800354dba000a05e80010
:10056000020039003420ec000af0a0008b05e900fd
:100570000f003200254dba000a05e80002003900dc
:100580003420ec000af0a0008b05e90008003200de
:100590000c00e0000600320015cdba000a05e800a4
:1005a000020039003420ec000af0a0008b05e900bd
:1005b0008984e80054a0b4000b00e000e2ff3a0098
:1005c000000006009902ba00055d78008b05e9007d
:1005d000f7ff3200c82ade00055d78008b05e900d0
:1005e000f3ff32000c00e000f1ff320019ddba0029
:1005f000eeff37000000fa000108a9000080fa00b1
:10060000004006003600f800809fbe00829fbe00ba
:10061000849fbe00869fbe000000fa000068a9000b
:1006200006060700670707000080fa004f03be00b8
:100630004f02be004f01be004f00be003600f90061
:10064000004006003600f800809fbe00829fbe007a
:10065000849fbe00869fbe000000fa000368a900c8
:10066000008080001180800061004000e080480030
:100670000080880011808800d30107000080fa0004
:100680004f03be004f02be004f01be004f00be0030
:100690003600f90000400600801f78000000fa00d4
:1006a00001a8a90000188000d081880010188000df
:1006b000e081880020188000f081880030188000d8
:1006c00000828800401880001082880010c0b300ab
:1006d00013f0b7000080fa004f00780000400600d9
:1006e0000040da000000fe000000050003f0a20058
:1006f000889fbe008a9fbe008c1f780018010700eb
:100700001f0133006450e1004f0032006420e1001b
:100710005200320003826c0007003b000905d00044
:100720000306d000820f54000c065d000200390061
:1007300002003200890178000306780085825500a6
:1007400004003d000003fd008103fd008502ea0076
:100750008b854200840f720002003b006000100095
:10076000e08018006011b8000005eb007a28e10075
:100770000a00390006007800c75ddd00f707b20007
:10078000878075002d003700828171000a01780092
:10079000610560008180d1000080d3008502e900fe
:1007a000f9ff3b00060440008784480002003b003c
:1007b00060041400e0841c000988a30007003200d4
:1007c0008a81710082817100610164008904d10015
:1007d0000884d3008b05e800170037000978a300d0
:1007e00013003a000b00e000130034008b05e90011
:1007f0000804440089844c000a4474000978a3006a
:100800000d003a000b00e000070034008b05e90002
:100810000804440089844c0001003a000b002000c9
:100820000978a300f7ff32000001eb000200370057
:10083000828171000a0178008e0007000cf0a70089
:1008400001f0a000d70037006420e10002003a0068
:10085000838f6c00d70033000801be000200be0089
:10086000d0003700889fbe008a9fbe008c1f780092
:10087000bb000700c200330003866c006450e10037
:100880002e0032006420e100330032006150e100ac
:100890002f0032006120e1003100320085855500d3
:1008a000eb07b00009002000080420000500370015
:1008b0000804440089844c000a0031000603430008
:1008c00087834b000001530081815b00f8ff3300f8
:1008d0000203be000800a0000804440089844c0004
:1008e000f6ff3900c639dd008301730001003200d4
:1008f000130020008904d1000884d3000998a300c4
:10090000050032000800a7000300a0008904d10000
:100910000884d3008b05e8008904d1000884d30043
:100920000001eb000281d2005200070001f0a1009b
:100930000cf0a70001f0a0009a0037006420e1004d
:100940009c0032000801be000200be00f7ff370025
:100950006120e100970032006000b800f3ff37002b
:100960000000200001f82700f0ff370014002000ed
:10097000c7003700f4ff2f00c50037000001be009c
:10098000620007000470a70003f0a1006509b10030
:10099000160032000d0035006828e1000600350021
:1009a000f0ff2f00f1ff27000300e00013003b00e1
:1009b0000100280000000500000040008180480080
:1009c0008502e900fcff3a0008003700f88f42007a
:1009d00002003c008000eb00000005008100d10017
:1009e0000080d3008502e800fcff3a000300e0002d
:1009f00002003b0060001000e080180000000600cc
:100a00000001be00410007000470a70003f0a10030
:100a100003f8a30013003a006509b100100032008a
:100a2000090035006928e1000200350001002800b6
:100a30000000050000004000818048008502e900b8
:100a4000fcff3a0000000600f88f42000500350068
:100a50008100d1000080d3008502e800fcff3a004d
:100a6000000006008000eb00000005006011b800e7
:100a7000a200370081002000618055000b003d007e
:100a80000b00200061fe2f000100e1001d0034007a
:100a900082817100610164008904d1000884d3005f
:100aa0000000e800faff3a007100200061006400d5
:100ab000030070000200600009003200610444007d
:100ac000e0844c000988a500050032008b05e80091
:100ad0006808e10002003a008904d1000884d300cc
:100ae000f20f20000258e10005003d00c75ddd0067
:100af000f907b20089807500080078000000060040
:100b00000bf827008b00780000000500c70ade0004
:100b1000f107b200f50fb20008003200e1cf420049
:100b2000020032000170a00024000500810f700057
:100b3000010032000408050044000500810f700028
:100b400002003a00140005008502e90000004000a0
:100b500081c04800fcff3b000170a000240005009c
:100b60000004be00e9ff07000003be000405be004c
:100b70000200be00e5ff0700844f7500000006007c
:100b80000200be006450e100050036006420e10070
:100b9000020036000968a30001003a000800be0008
:100ba0000160a0004f0678004f05be004f04be0054
:100bb00000000600f0ff2f00f1ff2700f9ff3700cb
:100bc000889fbe008a9fbe008c1f7800e4ff07004c
:100bd000ebff330003866c006450e1002400320018
:100be0006420e100270032006150e1002200320061
:100bf0006120e100210032008b854200eb07b1004b
:100c00000134b800003ab8000804420089844a0060
:100c1000013ab8000030b8008880400009014a005d
:100c200004003300000040008180480002014900b8
:100c30008b05e900c909dd00830170000100320065
:100c400013002000c814de004814dd004709de0050
:100c50001200b200c808de000884700085ff07009b
:100c600001f0a1000cf0a70001f0a000cdff3700bb
:100c70006120e100cfff32000801be000200be008b
:100c8000f7ff37006150e100fcff3a00c9ff370071
:100c9000889fbe008a9fbe00841f7800b0ff0700b7
:100ca0004f00780011003300f0ff2f00838f6c009d
:100cb00006003b00040565000a00a7000800370095
:100cc00009f0a6001000200008003700820f540031
:100cd000838f5c00030039001000200001003e00fb
:100ce0000000200009f0a7000000ea004f05be0048
:100cf0004f04be000000e00000000600889fbe0018
:100d00008a9fbe000082700004027100048271009c
:100d1000260032000004be000200be006011b800d0
:100d20006b092000950220000182cf000a003900e3
:100d30000541b1000082cf00070039000541b10034
:100d40000982cf00040039000541b1000882cf00bc
:100d5000010039000541b100054252001200320085
:100d60000a003b0082817100610164008100d100b2
:100d70000080d3008984d3000884d3008b05e80069
:100d80000442e800f7ff3a00070037000804440077
:100d900089844c0000004800818048008b05e900f0
:100da0000442e900f9ff3a0032ff07004f05be0098
:080db0004f04be000000060024
:020000040000fa
:100db800426f00006e6a00006f750000720000004c
:020000040000fa
:100dc8000000fa0008d0bf000080fb00cf80de00e2
:100dd8001202200003002000820f5000838f580069
:100de800df003e0000060100210037002a0037001e
:100df800330037003d0037003e0037004800370019
:100e08004900370053003700540037005e003700b0
:100e18005f00370069003700d1003700d000370085
:100e2800cf003700ce003700660037006f0037006c
:100e38007000370079003700c9003700c800370054
:100e4800c7003700c600370076003700800037003b
:100e5800810037008b00370098003700a100370069
:100e68008a00370093003700a0003700ae00370033
:100e78000030ef000230ef00120020006000b800e0
:100e8800d80307000001eb006000b800d503070095
:100e980010c0b30008f0b700028080001380800003
:100ea800803e200001002000800f5100818f5900f2
:100eb800ae00360020c0b30008f0b700ae0037001f
:100ec8001200200000002000811c2400c503070038
:100ed8000001eb0000002000811c2400c103070072
:100ee80030c0b30008f0b700a3003700a400070023
:100ef800a10037001200200000002000811c2400ff
:100f0800b80307000001eb000000200001172400cf
:100f1800b403070050c0b30008f0b70096003700cc
:100f280097000700940037001200200000002000fe
:100f380001172400ab0307000001eb0000002000ac
:100f4800811c2400a703070070c0b30008f0b70095
:100f5800890037008a000700870037001200200048
:100f680000002000011724009e0307000001eb0089
:100f78000000200001172c009a03070090c0b3005e
:100f880008f0b7007c0037007d0007007a003700c2
:100f9800120020000000200001172c009103070018
:100fa8000001eb0000002000011724008d0307005a
:100fb800b0c0b30008f0b7006f003700700007003a
:100fc8006d003700120020006000b800850307009c
:100fd8000001eb0000002000011f2c008103070026
:100fe80010c1b30008f0b7006300370064000700c1
:100ff800610037001200200000002000011f2c00b3
:10100800780307000001eb006000b80075030700d3
:1010180030c1b30008f0b700570037005800070088
:10102800550037001200200000002000811c240019
:101038006c0307000001eb000000200001142400ed
:101048006803070090c1b30008f0b7004a003700f2
:101058004b00070048003700120020000000200065
:10106800011424005f0307000001eb0000002000ca
:10107800811c24005b030700b0c1b30008f0b7006f
:101088003d0037003e0007003b00370012002000fb
:101098006000b800530307000001eb0000002000c7
:1010a800811c24004f030700f0c1b30008f0b7000b
:1010b80031003700320007002f00370012002000ef
:1010c80000002000811c2400460307000001eb00fb
:1010d8006000b80043030700d0c1b30008f0b700b0
:1010e80025003700260007002300370012002000e3
:1010f80000002000011724003a0307000001eb005c
:101108000000200001172c00360307000080800033
:1011180011808000208088003180880010c2b300d0
:1011280008f0b700140037000280800013808000a8
:1011380020808000318080000001510081815900a9
:10114800401f200001002000800f5100818f5900ae
:101158000800360020c0b30008f0b70006003700ca
:101168000870ef00000000000300370000000000d6
:1011780001003700000000000080fa0000000600af
:101188000000fa00881f780070818000818180004b
:1011980018c0b3000200200003172400f1fd070067
:1011a8000000e000010035000044eb000804e00006
:1011b8000300320000c2b30009f0b700ea003700ac
:1011c800508180006181800018c0b30002002000b7
:1011d800831c2400e3fd07000000e0000100350047
:1011e8000044eb000804e0000300320020c1b30013
:1011f80009f0b700dc0037003081800041818000b1
:1012080018c0b30002002000831c2400d5fd07008d
:101218000000e000010035000044eb000804e00095
:101228000300320000c1b30009f0b700ce00370058
:10123800308180004181800018c0b3000200200086
:10124800031f2400c7fd07000000e000010035006f
:101258000044eb000804e0001900320050818000cf
:101268006181800018c0b30002002000031a240026
:10127800befd07000000e00001003c000044eb0058
:101288000804e0000e003200708180008181800037
:1012980018c0b30002002000031a2400b3fd0700a1
:1012a8000000e00001003c000044eb000804e000fe
:1012b8000300320040c0b30009f0b700aa003700ad
:1012c800508180006181800018c0b30002002000b6
:1012d800031f2400a3fd07000000e0000100350003
:1012e8000044eb000804e00019003200308180005f
:1012f8004181800018c0b30002002000031a2400b6
:101308009afd07000000e00001003c000044eb00eb
:101318000804e0000e0032007081800081818000a6
:1013280018c0b30002002000031a24008ffd070034
:101338000000e00001003c000044eb000804e0006d
:101348000300320060c0b30009f0b7008600370020
:10135800708180008181800018c0b30002002000e5
:10136800c32024007ffd07000000e00001003500d5
:101378000044eb000804e0002900320030818000be
:101388004181800018c0b30002002000031a240025
:1013980076fd07000000e00001003c000044eb007f
:1013a8000804e0001e003200508180006181800046
:1013b80018c0b30002002000031a24006bfd0700c8
:1013c8000000e00001003c000044eb000804e000dd
:1013d80013003200348180004581800050818000f4
:1013e8006181800018c0b3000001be000400be0087
:1013f8005efd07000000e00001003c000044eb0037
:101408000804e00003003200c0c1b30009f0b700cf
:1014180055003700e0c1b30009f0b70052003700ab
:10142800b0818000c181800018c0b3000200200094
:10143800031f24004dfd07000000e00001003c00f0
:101448000044eb000804e0000e00320090818000a8
:10145800a181800018c0b30002002000c32024002e
:1014680040fd07000000e000010035000044eb00eb
:101478000804e0000300320080c1b30009f0b7009f
:101488003900370090818000a181800018c0b30026
:1014980002002000031f240034fd07000000e000c4
:1014a80001003c000044eb000804e0000e0032009c
:1014b800b0818000c181800018c0b3000200200004
:1014c800c320240027fd07000000e00001003500cc
:1014d8000044eb000804e00003003200a0c1b300a0
:1014e80009f0b700200037007081800081818000fa
:1014f80018c0b30002002000c320240019fd070013
:101508000000e000010035000044eb000804e000a2
:1015180013003200348180004581800050818000b2
:101528006181800018c0b3000001be000400be0045
:101538000efd07000000e00001003c000044eb0045
:101548000804e00003003200a0c0b30009f0b700af
:101558000500370080c0b30009f0b700020037006b
:1015680020c0b30009f0b70009d0bf008080fb009d
:1015780008d0bf000080fb000000e900808f500009
:101588000200320009d0bf0008f0b7004f0478000d
:101598000080fa00000006000000fa0013e1a9002c
:1015a80011e1a9001061a8001021a900810880009c
:1015b800f0fc2f0000806000800888000a21ef00fe
:1015c8000621ef00202620007008880000a02500d2
:1015d800600888002142800080ff2f0000806000a2
:1015e8000000a000204288000108a9002108a800e6
:1015f80011e1a8000080fa00000006000000fa00cf
:1016080005e1a9000421a9000068a9002068a80034
:1016180005e1a80000002000a13724000d00070004
:101628000080fa00000006000000fa001fe1a9008f
:101638001e21a9000368a9002368a8001fe1a800cb
:1016480000002000a1472400760007000080fa006f
:10165800000006000400fa00881f7800008fbe0012
:1016680021088000f0fc2f0000806000200888001e
:101678001e0178009e0190000068290081c12400a5
:1016880076fc070018c0b30002f02f00f37724009f
:10169800b6fc07000000e00001003c000044eb003d
:1016a8000804e0005400320021088000f0fc2f00fc
:1016b800008060000040a000200888001e0178001b
:1016c8009e0190000068290081c1240063fc070086
:1016d800020020000310240060fc070018c0b300bb
:1016e80002f02f00f3772400a0fc07000000e000c0
:1016f80001003c000044eb000804e0003200320026
:1017080021088000f0fc2f00008060000050a0003d
:10171800200888001e0178009e01900000682900ba
:1017280081c124004dfc070002002000032824008a
:101738004afc070018c0b30002f02f00f37724001a
:101748008afc07000000e00001003c000044eb00b8
:101758000804e00010003200210880000003200087
:1017680001007000200888001e0178009e0190008a
:101778000068290081c1240038fc0700020020000d
:101788000338240035fc07007afc070000007800c5
:1017980010088800200037001e0178009e01900084
:1017a8000068290081c124002cfc070002002000e9
:1017b8000328240029fc07006efc070000007800bd
:1017c80010088800140037001e0178009e01900060
:1017d8000068290081c1240020fc070002002000c5
:1017e800031024001dfc070062fc070000007800bd
:1017f80010088800080037001e0178009e0190003c
:101808000068290081c1240014fc070059fc070066
:1018180000007800100888004f0478000080fa0063
:10182800000006000400fa00881f7800008fbe0040
:10183800f1088000f0fc2f0000806000f0088800ac
:101848001e0178009e0190000068290081c12400d3
:1018580002fc070018c0b30002f02f00f377240041
:1018680042fc07000000e00001003c000044eb00df
:101878000804e00054003200f1088000f0fc2f005a
:10188800008060000040a000f00888001e01780079
:101898009e0190000068290081c12400effb070029
:1018a8000200200003102400ecfb070018c0b3005e
:1018b80002f02f00f37724002cfc07000000e00062
:1018c80001003c000044eb000804e0003200320054
:1018d800f1088000f0fc2f00008060000050a0009c
:1018e800f00888001e0178009e0190000068290019
:1018f80081c12400d9fb070002002000032824002e
:10190800d6fb070018c0b30002f02f00f3772400bd
:1019180016fc07000000e00001003c000044eb005a
:101928000804e00010003200f108800000032000e5
:1019380001007000f00888001e0178009e019000e8
:101948000068290081c12400c4fb070002002000b0
:1019580003382400c1fb070006fc070000007800dc
:10196800d0088800200037001e0178009e019000f2
:101978000068290081c12400b8fb0700020020008c
:1019880003282400b5fb0700fafb070000007800d5
:10199800d0088800140037001e0178009e019000ce
:1019a8000068290081c12400acfb07000200200068
:1019b80003102400a9fb0700eefb070000007800d5
:1019c800d0088800080037001e0178009e019000aa
:1019d8000068290081c12400a0fb0700e5fb07007f
:1019e80000007800d00888004f0478000080fa00d2
:1019f800000006000600fa00881f7800b3020700fe
:101a0800dd020700fdfe0700e3fe070006ff0700f2
:101a1800d80007002f0207007802070064cea8004c
:101a280064eea800254ea800c06d280071002000b3
:101a38008a02070000a025002126200001030700d4
:101a4800010037000000000064020700e14f500069
:101a5800fcff3a00650207005c020700000f7800ef
:101a68009e00780068804000100078008000eb003d
:101a7800fcfb070032332300330524004efc07002b
:101a8800020020000358240074fb0700d2cc2c006d
:101a9800c304240048fc0700100798002107980099
:101aa8001e019000ae01900000002000812024005b
:101ab8006afb070002002000030a240009fb070054
:101ac80050818800618188009e007800668040000f
:101ad800100078008000eb00e2fb0700323323009f
:101ae8003305240034fc07000200200003582400ba
:101af8005afb0700d2cc2c00c30424002efc07009c
:101b080010079800210798001e019000ae01900070
:101b1800000020008120240050fb07000200200064
:101b2800030a2400effa0700b0818800c181880009
:101b38009e00780064804000100078008000eb0070
:101b4800c8fb070032332300330524001afc0700c2
:101b5800020020000358240040fb0700d2cc2c00d0
:101b6800c304240014fc07001007980021079800fc
:101b78001e019000ae01900000002000812024008a
:101b880036fb070002002000030a2400d5fa0700ec
:101b980070818800818188001e80e800100078002c
:101ba8008000eb00affb070032332300330524002d
:101bb80001fc0700020020000358240027fb07004f
:101bc800d2cc2c00c3042400fbfb070010079800ac
:101bd800210798001e019000ae019000000020002f
:101be800812024001dfb070002002000030a2400b6
:101bf800bcfa070030818800418188001e00780007
:101c0800100078008000eb0096fb070032332300b9
:101c180033052400e8fb07000200200003582400d5
:101c28000efb0700d2cc2c00c3042400e2fb070003
:101c380010079800210798001e019000ae0190003f
:101c4800000020008120240004fb0700020020007f
:101c5800030a2400a3fa070090818800a181880064
:101c680090818000a181800018c0b300020020008c
:101c7800031f24003bfb07000000e00001003500c3
:101c88000044eb000804e00002003200254ea800e2
:101c98000e003700308180004181800018c0b300f9
:101ca80002002000031f24002efb07000000e000b4
:101cb800010035000044eb000804e0000200320097
:101cc800254ea80001003700254ea900708180002c
:101cd8008181800018c0b30002002000031f240087
:101ce80020fb07000000e000010035000044eb0085
:101cf8000804e0000200320064eea800010037008a
:101d080064eea900b0818000c181800018c0b300d2
:101d180002002000031f240012fb07000000e0005f
:101d2800010035000044eb000804e0000200320026
:101d380064cea80044ff3700508180006181800094
:101d480018c0b30002002000031f240005fb070091
:101d58000000e000010035000044eb000804e0004a
:101d68000200320064cea80037ff370064cea90015
:101d780035ff37000000fa001160800080ff2f0057
:101d8800008060001060880000fa20002060880051
:101d980023aca800238ca80011618000f03f2f001d
:101da8000080600000a0a0001061880030002000c2
:101db80020618800c3aca800c38ca800116680000d
:101dc800f03f2f000080600000a0a000106688008f
:101dd800300020002066880001eca8000080fa008e
:101de800000006000600fa00008fbe0022079800d7
:101df8002e0090000000e00005003a001e01780067
:101e08009e019000b2808800c380880007003700d8
:101e18002e009000e10f500004003a001e017800e7
:101e28009e019000f2808800038188000080fa00fb
:101e3800000006000000fa00889fbe0014818000a0
:101e480025818000f08080000181800018c0b300e7
:101e58000001be000400be00c2fa07000000e00056
:101e6800010035000044eb000804e0000d003200da
:101e7800f88080000981800014818000258180001d
:101e880050808000618080000001be000400be0018
:101e980015fa07000801be00b50007001081880088
:101ea800218188001481800025818000f0808000d5
:101eb8000181800018c0b3000001be000400be000c
:101ec800aafa07000000e00001003c000044eb0013
:101ed8000804e0000d003200f880800009818000cd
:101ee80014818000258180005080800061808000fe
:101ef8000001be000400be00faf907000801be0098
:101f080083000700108188002181880010818000eb
:101f18002181800018c0b3006011b80093fa07004f
:101f28000000e00001003c000044eb000804e00071
:101f380004003200c3eca90024cea800c3cca8003a
:101f480003003700c3cca90024eea800c3eca80006
:101f580010818000218180005700070002002000c6
:101f68000322240014fb0700a3fa070000007800ee
:101f780030668800d4808000e5808000b0808000d2
:101f8800c180800018c0b3000001be000400be007c
:101f980074fa07000000e000010035000044eb007f
:101fa8000804e0000d003200b8808000c98080007d
:101fb800d4808000e58080005080800061808000af
:101fc8000001be000400be00c7f907000801be00fa
:101fd80067000700d0808800e1808800d4808000f6
:101fe800e5808000b0808000c180800018c0b30008
:101ff8000001be000400be005cfa07000000e0001b
:1020080001003c000044eb000804e0000d00320031
:10201800b8808000c9808000d4808000e58080007e
:1020280050808000618080000001be000400be0076
:10203800acf907000801be0035000700d080880011
:10204800e1808800d0808000e180800018c0b30063
:102058006011b80045fa07000000e00001003c00ec
:102068000044eb000804e0000400320023cca9007f
:1020780015eea80023eca8000300370023eca90004
:1020880015cea80023cca800d0808000e180800075
:10209800090007000200200003222400c6fa0700f6
:1020a80055fa070000007800306188004f04be0030
:1020b8000080fa00000006000400fa00881f78007b
:1020c800008fbe0018c0b3006011b8001e00780071
:1020d8009e00900025fa07000000e00001003d0086
:1020e8000044eb000804e000030032001e00780002
:1020f8009e009000030037001e0078009e009000ac
:1021080001f0a2004f0478000080fa0000000600e9
:102118000800fa00881f7800008fbe002207980088
:102128003307980018c0b3002e019000be0190003c
:102138001e0078009e0090000cfa07000000e000e6
:1021480001003c000044eb000804e00003003200fa
:102158001e0078009e009000020037002e009000bc
:10216800be0090004f0478000080fa0000000600ce
:102178000800fa00881f7800008fbe002207980028
:102188003307980018c0b3002e019000be019000dc
:102198001e0078009e009000f2f907000000e000a1
:1021a800010035000044eb000804e00003003200a1
:1021b8001e0078009e009000020037002e0090005c
:1021c800be0090004f0478000080fa00000006006e
:1021d8000c00fa00881f7800008fbe0022079800c4
:1021e80033079800440798005507980018c0b300b3
:1021f8004e019000de0190001e0078009e009000c5
:10220800daf907000000e00001003c000044eb00a0
:102218000804e000040032004e019000de01900046
:10222800028fbe000e00370018c0b3002e019000c8
:10223800be0190001e0078009e009000c9f90700ba
:102248000000e000010035000044eb000804e00055
:10225800030032002e019000be019000028fbe00e4
:102268001e0078009e0090004f0478000080fa005d
:10227800000006000400fa00008fbe00b2fd200036
:10228800930424001e0078009e00900073f9070054
:10229800020020004333240047fa07000080fa00b8
:1022a800000006000400fa00008fbe00b2fd200006
:1022b800930424001e0078009e0090003efa070058
:1022c800020020004333240064f907000080fa006c
:1022d800000006000000fa0021e3a9002143a8003d
:1022e80001198000f0cf2f000080600000198800dd
:1022f8002043a90001198000000e20000100700091
:102308000019880011198000f0ff2100008060008a
:10231800101988002343a80011198000f0cf2f005e
:1023280000806000101988001119800030f82f0013
:10233800008060000040a000101988002203a90056
:102348002223a90025e3a900f0c0b30024e3b700c5
:1023580021198000f00f2e008080600000f020001e
:1023680001007000201988003303a9002e0ea80070
:102378002f6ea8006f2ea8001e2ea8004feea800f2
:102388003063a80030c3a8003163a80031e3a80077
:102398002e03a8004119800000fc2f000080600077
:1023a8004019880028e3a90001a8a90021a8a800cd
:1023b80021e3a8000080fa00000006000000fa00ef
:1023c8002023a8000080fa00000006000000fa00a0
:1023d800a00321000080fa00000006000000fa00b7
:1023e80013d0bf000080fa00000006000000fa00c9
:1023f8001370ef000080fa00000006000000fa00e9
:102408002002a9000111800090ff2f0000806000c9
:102418000011880020a2a9002062a8005005200011
:102428004011880023a2a90023e2a9000188a9007d
:102438002188a90011118000f0f32f0000806000ae
:10244800101188000168a9002168a90021e2a800ec
:102458002342a8000080fa00000006000600fa00e7
:1024680010079800210798000040eb00004f780003
:102478000040eb00004f78000e003700000000001d
:102488001111800000202000008060000000e000a2
:10249800fbff3a001e009000104078000080fb000f
:1024a800201188001e0090000000e8001007980026
:1024b8001e4fe8009e80fb002e009000808f500089
:1024c800eeff35000080fa00000006000000fa0068
:1024d800f0032000303a8800213a8000f0f32f0002
:1024e80000806000203a8800213a800000fe2f001a
:1024f800008060000000a000203a88001200200040
:1025080080072000a109200033742000804978004a
:102518008149780082497800103a800000017800eb
:102528000200a00060042000710520002374200030
:1025380080497800814978008249780000000000cd
:10254800113a800000002700808060000000210010
:10255800808f5000faff3a0000000000113a800016
:1025680000022000008060000000e000fbff320055
:102578000080fa00000006000000fa000e2eef00ae
:102588001e2eef002e2eef003e2eef004e2eef00f7
:102598005e2eef006e2eef00214ea90060cea9003e
:1025a80060eea90011cea90011eea90020cea90065
:1025b80020eea9002136800000f82f00008060007e
:1025c8008001b300203688001134800000fc2f0001
:1025d800008060000000a000103488000080fa002d
:0425e80000000600e9
:020000040000fa
:1025ec000e1000000200000080000000101000001f
:1025fc0002000000800000000a100000040000002f
:10260c00820000000000480042000000141000008e
:10261c0026000000800000003a1000000a000000b4
:10262c00800000001210000002000000800000007a
:10263c00001000000a0000008000000000000000f4
:020000040000fa
:10264c00f03fb1000180b10006003500ee03090037
:10265c0000000000403fb1000180b100fbff3d00d5
:10266c001000b000203fb0000200350000800900cf
:08267c00000000000000060050
:020000040000fa
:02000004000af0
:04afe000cfff00009f
:020000040000fa
:02000004000af0
:04afe400ffff00006b
:020000040000fa
:02000004000af0
:04afe8007fff0000e7
:020000040000fa
:02000004000af0
:04afec005fff000003
:020000040000fa
:02000004000af0
:04aff00038ff000026
:020000040000fa
:02000004000af0
:04aff400ffff00005b
:00000001FF
